:100000000C945D000C9485000C9485000C94850084
:100010000C9485000C9485000C9485000C9485004C
:100020000C9485000C9485000C9485000C9485003C
:100030000C9485000C9485000C9485000C9485002C
:100040000C94CD030C9485000C949B030C947503C5
:100050000C9485000C9485000C9485000C9485000C
:100060000C9485000C94850000000008000201003B
:100070000003040700000000000000000000000072
:10008000250028002B0000000000240027002A0083
:10009000040404040404040402020202020203032E
:1000A0000303030301020408102040800102040836
:1000B00010200102040810201D0611241FBECFEFDE
:1000C000D8E0DEBFCDBF11E0A0E0B1E0EAE6F1E1AB
:1000D00002C005900D92AA33B107D9F721E0AAE337
:1000E000B1E001C01D92A03EB207E1F710E0CDE5FE
:1000F000D0E004C02197FE010E94A808CC35D107AA
:10010000C9F70E9417040C94B3080C94000090E007
:10011000FC01EC55FF4F2491FC01E057FF4F849107
:10012000882399F090E0880F991FFC01EA57FF4F50
:10013000A591B491FC01E458FF4F859194918FB73C
:10014000F894EC91E22BEC938FBF0895CF92DF925D
:10015000EF92FF920F931F93CF93DF936C017A017D
:100160008B01C0E0D0E0CE15DF0581F0D8016D91A4
:100170008D01D601ED91FC910190F081E02DC60139
:100180000995892B11F02196EECF7E01C701DF91F1
:10019000CF911F910F91FF90EF90DF90CF90089536
:1001A000089580E090E00895FC01538D448D252F43
:1001B00030E0842F90E0821B930B541710F0CF9601
:1001C000089501970895FC01918D828D981761F033
:1001D000828DDF01A80FB11D5D968C91928D9F5F7E
:1001E0009F73928F90E008958FEF9FEF0895FC0129
:1001F000918D828D981731F0828DE80FF11D858DDC
:1002000090E008958FEF9FEF0895FC01918D228D6E
:10021000892F90E0805C9F4F821B91098F739927F3
:10022000089583E491E00E94050121E0892B09F4FF
:1002300020E0822F0895FC01848DDF01A80FB11DFD
:10024000A35ABF4F2C91848D90E001968F7399270C
:10025000848FA689B7892C93A089B1898C918370EA
:1002600080648C93938D848D981306C00288F389E3
:10027000E02D80818F7D80830895EF92FF920F9310
:100280001F93CF93DF93EC0181E0888F9B8D8C8D42
:10029000981305C0E889F989808185FD26C0F62E6E
:1002A0000B8D10E00F5F1F4F0F731127E02E8C8D09
:1002B000E8120CC00FB607FCFACFE889F9898081F3
:1002C00085FFF5CFCE010E941B01F1CF8B8DFE0182
:1002D000E80FF11DE35AFF4FF0829FB7F8940B8FA0
:1002E000EA89FB89808180620AC09FB7F894EE8911
:1002F000FF896083E889F9898081837080648083C5
:100300009FBF81E090E0DF91CF911F910F91FF900F
:10031000EF900895682F83E491E00C943D01CF9312
:10032000DF93EC01888D8823C9F0EA89FB898081FD
:1003300085FD05C0A889B9898C9186FD0FC00FB6CF
:1003400007FCF5CF808185FFF2CFA889B9898C9110
:1003500085FFEDCFCE010E941B01E7CFDF91CF914A
:10036000089580E090E0892B29F00E94110181110D
:100370000C940000089590E0FC01E859FF4F24918F
:10038000FC01EC55FF4F3491FC01E057FF4FE49125
:10039000EE2309F43CC0222339F1233091F038F4E4
:1003A0002130A9F0223001F584B58F7D12C02730AD
:1003B00091F02830A1F02430B9F4809180008F7D35
:1003C00003C0809180008F77809380000DC084B53A
:1003D0008F7784BD09C08091B0008F7703C0809172
:1003E000B0008F7D8093B000F0E0EE0FFF1FE45867
:1003F000FF4FA591B4919FB7F894611104C08C91FF
:100400003095382302C0EC913E2B3C939FBF08955A
:100410008E3008F08E508770806480937C008091CD
:100420007A00806480937A0080917A0086FDFCCF08
:10043000809178002091790090E0922B08953FB749
:10044000F89480913F0190914001A0914101B091B9
:10045000420126B5A89B05C02F3F19F00196A11DAA
:10046000B11D3FBFBA2FA92F982F8827820F911D4A
:10047000A11DB11DBC01CD0142E0660F771F881F91
:10048000991F4A95D1F70895009769F0FC010190F2
:100490000020E9F73197AF01481B590BBC0183E4F9
:1004A00091E00C94A60080E090E008952F923F9296
:1004B0004F925F926F927F928F929F92AF92BF9274
:1004C000CF92DF92EF92FF920F931F93CF93DF9320
:1004D000CDB7DEB7A4970FB6F894DEBF0FBECDBF81
:1004E0004B015C01F42E9B01AC010E948108882322
:1004F00019F082E191E027C024013501E89477F8F2
:100500002FEF3FEF4FE75FE7C301B2010E94810881
:1005100081110DC02FEF3FEF4FE75FE7C301B2013D
:100520000E94B70618161CF486E191E00CC02FEF6C
:100530003FEF4FE75FE4C501B4010E940F081816B2
:100540002CF48AE191E00E944402B4C02FEF3FEF07
:100550004FE75FECC501B4010E94B70687FDF1CFFC
:1005600020E030E0A901C501B4010E94B70687FF71
:1005700009C08DE20E948A013C01B7FAB094B7F835
:10058000B09402C0612C712C10E060E070E080E05B
:100590009FE3F11641F020E030E040E251E40E9498
:1005A000BC061F5FF6CFA50194010E944B064B01CC
:1005B0005C010E942E076AA3C72ED82EE92E19A22D
:1005C000262F372F482F592F8E010F5D1F4F0BA35A
:1005D0001CA39AE0292E312C412C512CCA01B901BF
:1005E000A20191010E948608605DF80162938F016B
:1005F000211531054105510589F7CF010E944402BB
:100600008301080F191FFF2009F453C06AA17C2D34
:100610008D2D9E2D0E945D079B01AC01C501B4018B
:100620000E944A064B015C018EE20E948A01080F7B
:10063000191F8AE0282E312C412C512C20E030E06B
:1006400040E251E4C501B4010E9414084B015C0171
:100650000E942E079B0140E050E019A2CBA0DCA035
:10066000762E3AA3642EE52ECA01B901A2019101AA
:100670000E948608605DF60162936F0121153105C5
:100680004105510589F7CF010E944402080F191F47
:10069000672D7AA1862D9E2D0E945D079B01AC01DE
:1006A000C501B4010E944A064B015C01FA94F110A5
:1006B000C5CFC801A4960FB6F894DEBF0FBECDBF5C
:1006C000DF91CF911F910F91FF90EF90DF90CF902E
:1006D000BF90AF909F908F907F906F905F904F9062
:1006E0003F902F9008950E94AE081F920F920FB670
:1006F0000F9211242F933F934F935F936F937F93A8
:100700008F939F93AF93BF93EF93FF9383E491E015
:100710000E941B01FF91EF91BF91AF919F918F912B
:100720007F916F915F914F913F912F910F900FBEED
:100730000F901F9018951F920F920FB60F921124D1
:100740002F938F939F93EF93FF93E0915301F09139
:1007500054018081E0915901F0915A0182FD12C04B
:10076000908180915C018F5F8F7320915D01821772
:1007700051F0E0915C01F0E0ED5BFE4F958F8093CE
:100780005C0101C08081FF91EF919F918F912F912A
:100790000F900FBE0F901F9018951F920F920FB6DB
:1007A0000F9211242F933F938F939F93AF93BF93F7
:1007B00080913B0190913C01A0913D01B0913E019F
:1007C00030913A0123E0230F2D3720F40196A11D2B
:1007D000B11D05C026E8230F0296A11DB11D20936F
:1007E0003A0180933B0190933C01A0933D01B0936B
:1007F0003E0180913F0190914001A0914101B09153
:1008000042010196A11DB11D80933F0190934001CB
:10081000A0934101B0934201BF91AF919F918F91FD
:100820003F912F910F900FBE0F901F901895CF936F
:10083000DF93CDB7DEB72C970FB6F894DEBF0FBEAF
:10084000CDBF789484B5826084BD84B5816084BD59
:1008500085B5826085BD85B5816085BD80916E005E
:10086000816080936E00109281008091810082608F
:1008700080938100809181008160809381008091CC
:1008800080008160809380008091B10084608093BB
:10089000B1008091B00081608093B00080917A00B7
:1008A000846080937A0080917A00826080937A00DD
:1008B00080917A00816080937A0080917A008068CC
:1008C00080937A001092C100E0915301F09154019D
:1008D00082E08083E0914F01F09150011082E0911D
:1008E0005101F091520180E1808310925B01E0910F
:1008F0005701F091580186E08083E0915501F09115
:100900005601808180618083E0915501F09156010C
:10091000808188608083E0915501F091560180814B
:1009200080688083E0915501F091560180818F7D30
:10093000808382E00E94870083E00E94870084E039
:100940000E94870085E00E9487008FE00E940802D5
:10095000BC01990F880B990B0E945F072EEB3FE9B2
:100960004AE75FE30E9414084B015C0180E10E94AA
:100970000802BC01990F880B990B0E945F076983DD
:100980007A838B839C838EE00E940802BC01990FBE
:10099000880B990B0E945F0725E83BEE41E75FE378
:1009A0000E9414086B017C0181E10E940802BC01D5
:1009B000990F880B990B0E945F0725EE30ED42E8F6
:1009C0005FE30E9414082B013C0140E0C501B40123
:1009D0000E94560289E00E948A0140E069817A8182
:1009E0008B819C810E94560289E00E948A0140E02E
:1009F000C701B6010E94560289E00E948A0140E0C8
:100A0000C301B2010E94560289E00E948A018EE170
:100A100091E00E944402A7019601C501B4010E9421
:100A20004B0620E030E040E05FE30E9414086D8355
:100A30007E838F839887A301920169817A818B815C
:100A40009C810E944B0620E030E040E05FE30E9482
:100A5000140869877A878B879C8729813A814B8123
:100A60005C81C501B4010E944B0620E030E040E00B
:100A70005FE30E9414084B015C01A3019201C701CE
:100A8000B6010E944B0620E030E040E05FE30E94A8
:100A900014086B017C012AE939E949E95FE36985BA
:100AA0007A858B859C850E94140820E030E048EC14
:100AB00052E40E944B069B01AC016D817E818F81C7
:100AC00098850E940F0818165CF460E085E00E948B
:100AD000BB0161E084E00E94BB0181E291E02EC095
:100AE0002AE939E949E95FE36D817E818F81988543
:100AF0000E94140820E030E048EC52E40E944B06CB
:100B00009B01AC0169857A858B859C850E940F08C5
:100B100060E0181654F484E00E94BB0161E085E0B7
:100B20000E94BB0187E291E009C084E00E94BB0102
:100B300060E085E00E94BB018CE291E00E944402EB
:100B400089E00E948A012AE939E949E95FE3C7019E
:100B5000B6010E94140820E030E048EC52E40E9404
:100B60004B069B01AC01C501B4010E940F08181689
:100B70005CF460E083E00E94BB0161E082E00E94DF
:100B8000BB0181E391E02AC02AE939E949E95FE341
:100B9000C501B4010E94140820E030E048EC52E4A2
:100BA0000E944B069B01AC01C701B6010E940F08D1
:100BB00060E0181654F482E00E94BB0161E083E01B
:100BC0000E94BB0186E391E009C082E00E94BB0164
:100BD00060E083E00E94BB018CE291E00E9444024D
:100BE0008EE191E00E9444020E941F024B015C01D1
:100BF00084E6C82ED12CE12CF12C0E941F02DC01CE
:100C0000CB0188199909AA09BB09883E9340A1051F
:100C1000B10598F321E0C21AD108E108F10888EE85
:100C2000880E83E0981EA11CB11CC114D104E104FC
:100C3000F10419F70E94B10188CEE3E4F1E01382D8
:100C4000128288EE93E0A0E0B0E084839583A683CF
:100C5000B78384E091E09183808385EC90E0958771
:100C6000848784EC90E09787868780EC90E0918B76
:100C7000808B81EC90E0938B828B82EC90E0958B63
:100C8000848B86EC90E0978B868B118E128E138E60
:100C9000148E08955058BB27AA270E9462060C9410
:100CA000D5070E94C70738F00E94CE0720F039F41C
:100CB0009F3F19F426F40C94C4070EF4E095E7FB6B
:100CC0000C94BE07E92F0E94E60758F3BA17620793
:100CD00073078407950720F079F4A6F50C940808AB
:100CE0000EF4E0950B2EBA2FA02D0B01B901900147
:100CF0000C01CA01A0011124FF27591B99F0593F8B
:100D000050F4503E68F11A16F040A22F232F342FD2
:100D10004427585FF3CF469537952795A795F04020
:100D20005395C9F77EF41F16BA0B620B730B840B35
:100D3000BAF09150A1F0FF0FBB1F661F771F881FED
:100D4000C2F70EC0BA0F621F731F841F48F4879545
:100D500077956795B795F7959E3F08F0B0CF939537
:100D6000880F08F09927EE0F9795879508950E94B0
:100D70009A0708F481E008950E94D0060C94D507E4
:100D80000E94CE0758F00E94C70740F029F45F3F49
:100D900029F00C94BE0751110C9409080C94C40757
:100DA0000E94E60768F39923B1F3552391F3951B4D
:100DB000550BBB27AA2762177307840738F09F5F7C
:100DC0005F4F220F331F441FAA1FA9F335D00E2EE9
:100DD0003AF0E0E832D091505040E695001CCAF756
:100DE0002BD0FE2F29D0660F771F881FBB1F261719
:100DF00037074807AB07B0E809F0BB0B802DBF01F0
:100E0000FF2793585F4F3AF09E3F510578F00C94BE
:100E1000BE070C9409085F3FE4F3983ED4F386952F
:100E200077956795B795F7959F5FC9F7880F911DDF
:100E30009695879597F90895E1E0660F771F881FCB
:100E4000BB1F621773078407BA0720F0621B730B7E
:100E5000840BBA0BEE1F88F7E09508950E94EE0709
:100E600088F09F5798F0B92F9927B751B0F0E1F06B
:100E7000660F771F881F991F1AF0BA95C9F714C01B
:100E8000B13091F00E940808B1E008950C94080870
:100E9000672F782F8827B85F39F0B93FCCF3869554
:100EA00077956795B395D9F73EF4909580957095B1
:100EB00061957F4F8F4F9F4F0895E89409C097FB2E
:100EC0003EF490958095709561957F4F8F4F9F4F21
:100ED0009923A9F0F92F96E9BB279395F695879565
:100EE00077956795B795F111F8CFFAF4BB0F11F428
:100EF00060FF1BC06F5F7F4F8F4F9F4F16C08823CF
:100F000011F096E911C0772321F09EE8872F762F04
:100F100005C0662371F096E8862F70E060E02AF045
:100F20009A95660F771F881FDAF7880F9695879531
:100F300097F90895990F0008550FAA0BE0E8FEEF06
:100F400016161706E807F907C0F012161306E4078D
:100F5000F50798F0621B730B840B950B39F40A2686
:100F600061F0232B242B252B21F408950A2609F464
:100F7000A140A6958FEF811D811D089597F99F6768
:100F800080E870E060E008959FEF80EC0895002411
:100F90000A941616170618060906089500240A94DE
:100FA00012161306140605060895092E0394000C64
:100FB00011F4882352F0BB0F40F4BF2B11F460FFF3
:100FC00004C06F5F7F4F8F4F9F4F089557FD90581C
:100FD000440F551F59F05F3F71F04795880F97FBFD
:100FE000991F61F09F3F79F08795089512161306B7
:100FF0001406551FF2CF4695F1DF08C016161706E6
:101000001806991FF1CF869571056105089408951A
:10101000E894BB2766277727CB0197F908950E94AC
:101020009A0708F48FEF08950E9427080C94D507BB
:101030000E94C70738F00E94CE0720F0952311F0D8
:101040000C94BE070C94C40711240C9409080E9448
:10105000E60770F3959FC1F3950F50E0551F629F0F
:10106000F001729FBB27F00DB11D639FAA27F00D01
:10107000B11DAA1F649F6627B00DA11D661F829F28
:101080002227B00DA11D621F739FB00DA11D621F0D
:10109000839FA00D611D221F749F3327A00D611D2A
:1010A000231F849F600D211D822F762F6A2F11240C
:1010B0009F5750409AF0F1F088234AF0EE0FFF1F3F
:1010C000BB1F661F771F881F91505040A9F79E3F96
:1010D000510580F00C94BE070C9409085F3FE4F3BF
:1010E000983ED4F3869577956795B795F795E795EC
:1010F0009F5FC1F7FE2B880F911D9695879597F9F5
:1011000008950E949A07880B990B0895A1E21A2E60
:10111000AA1BBB1BFD010DC0AA1FBB1FEE1FFF1F9B
:10112000A217B307E407F50720F0A21BB30BE40BEB
:10113000F50B661F771F881F991F1A9469F7609532
:101140007095809590959B01AC01BD01CF010895EC
:10115000EE0FFF1F0590F491E02D099481E090E0DF
:0A116000F8940C94B308F894FFCF44
:10116A00000000003D01A600D4008F010501E30044
:10117A00F7006E616E00696E66006F7666000D0A92
:10118A00005249474854004C4546540053544F5066
:0A119A0000444F574E00555000006E
:00000001FF
